:04000000D3EF13F037
:1008000000010000000A00000064000000E803008E
:100810000010270000A086010040420F008096983B
:100820000000E1F50500CA9A3B00803F002041002E
:10083000C842007A44401C4650C347247449971864
:100840004BBCBE4C6B6E4E03155079AD60F34971D5
:1008500000803FCDCC3DD7233C12833AB7D138C678
:100860002737388635C0D633CC2B32708930E7DB5A
:100870002EE53C1E42A20D25322E32662043005446
:10088000204D6564696100542042616A6100542012
:10089000416C74610000440E0001636F000E0001A2
:1008A000646F0DEF09F0250E00017819D8B408D057
:1008B00040C0D9FF41C0DAFF78C0DFFF0BEF09F07D
:1008C000000E00016C6F000E6B6F000E00016A6F6E
:1008D000000E696F42C0F6FF43C0F7FF0800F550F5
:1008E000C4EC13F0D8A035D0000E00016C6F000EE0
:1008F0006B6F6BC00FF06CC010F0000E126E0A0E22
:10090000116E8CEC13F00FC06BF010C06CF0D00EB9
:10091000476EFF0E486E42C0F6FF43C0F7FF080067
:10092000F550496E4A6A4750492648504A22495074
:1009300000016B274A5000016C23424A432A42C0FF
:10094000F6FF43C0F7FF0800F550C4EC13F0D8B031
:10095000D0D742C0F6FF43C0F7FF0800F5502E0A7B
:10096000D8A432D000016A8D424A432A000E000109
:10097000776F000E766F1DD076C00FF077C010F045
:10098000000E126E0A0E116E8CEC13F042C0F6FFD0
:1009900043C0F7FF0800F5500F26000E1022D00EBE
:1009A0000F240001766FFF0E10200001776F424A7E
:1009B000432A42C0F6FF43C0F7FF0800F550C4ECDD
:1009C00013F0D8A00CD0D8D7000E0001776F000E1E
:1009D000766F00016A8903D000016A8514D042C095
:1009E000F6FF43C0F7FF424A432A0800F5CF78F0EC
:1009F00000017851000AD8B41BEF09F0660AD8B498
:100A0000EBD70DEF09F0070E00016A15D8B44AD3F1
:100A100000016AA905D0000E0001776F060E766FFF
:100A200063C0D9FF64C0DAFFDECF73F0DECF74F0AD
:100A3000DDCF75F0030E00016327000E6423000173
:100A400075AF11D073C001F074C002F075C003F02F
:100A5000B2EC13F001C073F002C074F003C075F083
:100A6000030E00016913000E0001726F000E716F1A
:100A7000000173510001741100017511D8B48BD0BD
:100A8000820E476EFF0E486E73C049F074C04AF084
:100A900075C04BF076C04CF0100E05D0D8904C329B
:100AA0004B324A324932E82EF9D7495047240001E7
:100AB000716F000E48200001726F00017107D8A00D
:100AC000720771C00FF072C010F0000E126E030EAC
:100AD000116E8CEC13F00FC071F010C072F071C089
:100AE00007F072C008F0000E0A6E0A0E096E34ECB0
:100AF00012F007C071F008C072F0000172AF04D0AC
:100B000000017107D8A0720700017151000822ECA2
:100B100009F024C06DF025C06EF026C06FF06DC0E6
:100B200015F06EC016F06FC017F073C018F074C0E7
:100B300019F075C01AF0E0EC0FF015C06DF016C09A
:100B40006EF017C06FF06DC001F06EC002F06FC0A4
:100B500003F0000E046E800E056E3F0E066EA4ECD0
:100B600011F0D8B005D000017107D8A0720713D0DA
:100B70006DC001F06EC002F06FC003F0000E046E95
:100B8000200E056E410E066EA4EC11F0D8A003D025
:100B90000001714B722B000177BF08D00001775123
:100BA0001DE10D0E0001765DD8B018D073C02EF097
:100BB00074C02FF075C030F0000176511AEC0BF0C4
:100BC00024C031F025C032F026C033F03DEC0CF0EB
:100BD0002EC073F02FC074F030C075F0000172BFEA
:100BE00008D00001725126E10A0E0001715DD8B0F3
:100BF00021D0000173510001741100017511D8B4A6
:100C00005BD073C02BF074C02CF075C02DF05AEC83
:100C100010F02B502C102D102E10D8A44DD0000108
:100C200072BF4AD00001725105E1020E0001715DF0
:100C3000D8A042D06DC001F06EC002F06FC003F0CA
:100C4000700E046E890E056E400E066EA4EC11F057
:100C5000D8B003D00001F70E02D00001F80E7127C2
:100C6000FF0E72230001715122EC09F024C06DF0D7
:100C700025C06EF026C06FF073C001F074C002F0A2
:100C800075C003F06DC004F06EC005F06FC006F0D3
:100C900013EC0DF001C065F002C066F003C067F010
:100CA00004C068F0000E0001736F000E0001746F45
:100CB000000E0001756F33D073C02BF074C02CF0A0
:100CC00075C02DF05AEC10F02BC065F02CC066F00A
:100CD0002DC067F02EC068F073C03AF074C03BF0CE
:100CE00075C03CF065C009F066C00AF067C00BF043
:100CF00068C00CF022EC13F009C03DF00AC03EF0D1
:100D00000BC03FF050EC13F03AC073F03BC074F0EE
:100D10003CC075F0000E0001726F000E716F010E85
:100D20000001786F0A0E00017819D8B41ED00001B6
:100D30007851040D010EF324F66E080EF420F76EC0
:100D40000900F5500001655D0900F5500001665984
:100D50000900F550000167590900F5500001685974
:100D6000D8A003D00001782BDDD778C047F0486ABF
:100D700047BE4806000176514726000177514822B8
:100D8000000171514726000172514822475000016D
:100D90006B5F485000016C5B0001765100017711D8
:100DA000D8B404D000016B07D8A06C07030E000173
:100DB0006915476E000E00016A15486E47504810CD
:100DC000D8B40DD008D040C0D9FF41C0DAFF200E02
:100DD000DF6E404A412A00016B07D8A06C07000172
:100DE0006CBF07D000016C51EEE100016B05D8B07B
:100DF000EAD7030E00016915476E000E00016A155F
:100E0000486E47504810D8B453D040C0D9FF41C0B5
:100E1000DAFF2D0E4BD0404A412A4AD065C001F07E
:100E200066C002F067C003F068C004F000017851AA
:100E3000040D010EF324F66E080EF420F76E09007F
:100E4000F5CF05F00900F5CF06F00900F5CF07F062
:100E50000A00F5CF08F076EC12F001C06DF002C088
:100E60006EF003C06FF004C070F06DC001F06EC092
:100E700002F06FC003F070C004F00A0E056E000EA1
:100E8000066E000E076E000E086EEFEC12F001C049
:100E90006DF002C06EF003C06FF004C070F000018E
:100EA0006D51300F40C0D9FF41C0DAFFDF6EB3D7BC
:100EB0000001780700017829D8B40DD0AFD740C021
:100EC000D9FF41C0DAFF300EDF6E404A412A0001EF
:100ED0007107D8A07207000172BF07D000017251DC
:100EE000EEE100017105D8B0EAD7000177BF0CD060
:100EF0000001775105E1090E0001765DD8A004D00C
:100F0000080E0001786F02D076C078F000017851A9
:100F10000001765F000E000178BFFF0E0001775BD5
:100F2000000178510001D8B408D040C0D9FF41C0B9
:100F3000DAFF2E0EDF6E404A412A0001785122EC82
:100F400009F024C060F025C061F026C062F073C0D3
:100F500018F074C019F075C01AF060C015F061C0C7
:100F600016F062C017F0E0EC0FF015C02BF016C0C1
:100F70002CF017C02DF05AEC10F02BC065F02CC0EF
:100F800066F02DC067F02EC068F072D065C001F029
:100F900066C002F067C003F068C004F00001785139
:100FA000040D010EF324F66E080EF420F76E09000E
:100FB000F5CF05F00900F5CF06F00900F5CF07F0F1
:100FC0000A00F5CF08F076EC12F001C06DF002C017
:100FD0006EF003C06FF004C070F06DC001F06EC021
:100FE00002F06FC003F070C004F00A0E056E000E30
:100FF000066E000E076E000E086EEFEC12F001C0D8
:101000006DF002C06EF003C06FF004C070F000011C
:101010006D51300F40C0D9FF41C0DAFFDF6E404A4A
:10102000412A65C001F066C002F067C003F068C0E5
:1010300004F000017851040D010EF324F66E080E41
:10104000F420F76E0900F5CF05F00900F5CF06F0A2
:101050000900F5CF07F00A00F5CF08F0EFEC12F029
:1010600001C065F002C066F003C067F004C068F01C
:101070000001780700017829D8B40DD087D740C087
:10108000D9FF41C0DAFF300EDF6E404A412A00012D
:101090007607D8A077070001765100017711D8B400
:1010A000BCD0EDD70001765100017711D8A40DD046
:1010B000000165510001661100016711000168110E
:1010C000D8A403D00001764B772B800E000178BFA7
:1010D0007F0E476E000176510001785D0001775167
:1010E000800A4758D8B003D076C078F016D00001F7
:1010F0007751800A476E000178510001765D800EBD
:10110000000178BF7F0E4758D8B007D00001785152
:101110000001766F776B76BF770700016B51000196
:101120006C11D8B410D0030E00016915476E000E83
:1011300000016A15486E47504810D8B404D0000129
:101140006B07D8A06C0700016AAD1CD000016B5181
:101150000001765D00017751800A476E00016C51F5
:10116000800A4758D8B009D00001765100016B5F62
:101170000001775100016C5B05D0000E00016C6F1F
:10118000000E6B6F800E000178BF7F0E476E00016E
:101190006B510001785D00016C51800A4758D8B04E
:1011A0000BD00001785100016B5F000E000178BF89
:1011B000FF0E00016C5B05D0000E00016C6F000E8D
:1011C0006B6F00016B5100016C11D8B412D040C09C
:1011D000D9FF41C0DAFF200EDF6E404A412A0001EC
:1011E0006B07D8A06C0700016B5100016C11D8A4EB
:1011F000EED7030E00016915476E000E00016A1557
:10120000486E47504810D8B408D040C0D9FF41C0FC
:10121000DAFF2D0EDF6E404A412A42C0F6FF43C07E
:10122000F7FF424A432A0800F5CF78F000017851D1
:10123000D8A453EF04F040C0D9FF41C0DAFF000E3C
:10124000DF6E12002A6E2AAEFBD02A6C2A50800A6A
:10125000120FD8A091D0000E126E030E116E000E68
:101260000A6E0A0E096E000E046E640E036E2A509A
:10127000016E026A01BE0206B7EC12F001C007F06F
:1012800002C008F034EC12F0090E07240F6E000EB5
:101290000820106E8CEC13F0500E0F24F66E080E22
:1012A0001020F76E0900F5CF18F00900F5CF19F0FE
:1012B0000A00F5CF1AF0000E0A6E640E096E2A506D
:1012C000076E086A07BE080634EC12F0120E0724F7
:1012D0000F6E000E0820106E000E126E030E116EBF
:1012E0008CEC13F0500E0F24F66E080E1020F76EE3
:1012F0000900F5CF15F00900F5CF16F00A00F5CF7B
:1013000017F0E0EC0FF015C027F016C028F017C05A
:1013100029F027C015F028C016F029C017F0000EDC
:10132000126E030E116E000E046E0A0E036E2A502A
:10133000016E026A01BE0206B7EC12F001C00FF0A6
:1013400002C010F08CEC13F0500E0F24F66E080E55
:101350001020F76E0900F5CF18F00900F5CF19F04D
:101360000A00F5CF1AF0E0EC0FF015C024F016C01B
:1013700025F017C026F012002A50800A750FD8A059
:101380004DD0000E0A6E0A0E096E2A50076E086ACA
:1013900007BE080634EC12F0090E07240F6E000E8B
:1013A0000820106E000E126E030E116E8CEC13F0FE
:1013B000500E0F24F66E080E1020F76E0900F5CFC0
:1013C00015F00900F5CF16F00A00F5CF17F0000E62
:1013D000126E030E116E000E046E0A0E036E2A507A
:1013E000016E026A01BE0206B7EC12F001C00FF0F6
:1013F00002C010F08CEC13F0500E0F24F66E080EA5
:101400001020F76E0900F5CF18F00900F5CF19F09C
:101410000A00F5CF1AF0E0EC0FF0A7D72A50030D21
:10142000500EF324F66E080EF420F76E0900F5CF87
:1014300024F00900F5CF25F00A00F5CF26F01200C0
:101440002A50800A120FD8A091D0000E126E030EFF
:10145000116E000E0A6E0A0E096E000E046E640E06
:10146000036E2A50016E026A01BE0206B7EC12F04A
:1014700001C007F002C008F034EC12F0090E072496
:101480000F6E000E0820106E8CEC13F0290E0F2446
:10149000F66E080E1020F76E0900F5CF18F009005F
:1014A000F5CF19F00A00F5CF1AF0000E0A6E640E9F
:1014B000096E2A50076E086A07BE080634EC12F05F
:1014C000120E07240F6E000E0820106E000E126E12
:1014D000030E116E8CEC13F0290E0F24F66E080E1D
:1014E0001020F76E0900F5CF15F00900F5CF16F0C2
:1014F0000A00F5CF17F0E0EC0FF015C027F016C08A
:1015000028F017C029F027C015F028C016F029C010
:1015100017F0000E126E030E116E000E046E0A0E0E
:10152000036E2A50016E026A01BE0206B7EC12F089
:1015300001C00FF002C010F08CEC13F0290E0F2444
:10154000F66E080E1020F76E0900F5CF18F00900AE
:10155000F5CF19F00A00F5CF1AF0E0EC0FF015C046
:1015600024F016C025F017C026F012002A50800A79
:10157000750FD8A04DD0000E0A6E0A0E096E2A50C3
:10158000076E086A07BE080634EC12F0090E07243D
:101590000F6E000E0820106E000E126E030E116EFC
:1015A0008CEC13F0290E0F24F66E080E1020F76E47
:1015B0000900F5CF15F00900F5CF16F00A00F5CFB8
:1015C00017F0000E126E030E116E000E046E0A0E5E
:1015D000036E2A50016E026A01BE0206B7EC12F0D9
:1015E00001C00FF002C010F08CEC13F0290E0F2494
:1015F000F66E080E1020F76E0900F5CF18F00900FE
:10160000F5CF19F00A00F5CF1AF0E0EC0FF0A7D7EC
:101610002A50030D290EF324F66E080EF420F76EFF
:101620000900F5CF24F00900F5CF25F00A00F5CF29
:1016300026F012002D6E6D0E2D649FD0000E126EDE
:10164000030E116E000E0A6E0A0E096E000E046E75
:10165000640E036E2DC001F0026AB7EC12F001C0F7
:1016600007F002C008F034EC12F0090E07240F6EE8
:10167000000E0820106E8CEC13F0500E0F24F66E46
:10168000080E1020F76E0900F5CF18F00900F5CF0D
:1016900019F00A00F5CF1AF0000E0A6E640E096EFA
:1016A0002DC007F0086A34EC12F0120E07240F6EFA
:1016B000000E0820106E000E126E030E116E8CECE0
:1016C00013F0500E0F24F66E080E1020F76E09006E
:1016D000F5CF15F00900F5CF16F00A00F5CF17F099
:1016E000E0EC0FF015C02AF016C02BF017C02CF05C
:1016F000000E126E030E116E000E046E0A0E036EC3
:101700002DC001F0026AB7EC12F001C00FF002C068
:1017100010F08CEC13F0500E0F24F66E080E102013
:10172000F76E0900F5CF18F00900F5CF19F00A009F
:10173000F5CF1AF02AC015F02BC016F02CC017F008
:10174000E0EC0FF015C027F016C028F017C029F004
:1017500027C015F028C016F029C017F0000E186E2B
:10176000000E196E3F0E1A6EE0EC0FF015C024F05B
:1017700016C025F017C026F012000A0E2D645DD0A9
:10178000000E126E030E116E000E046E0A0E036E32
:101790002DC001F0026AB7EC12F001C00FF002C0D8
:1017A00010F08CEC13F0500E0F24F66E080E102083
:1017B000F76E0900F5CF18F00900F5CF19F00A000F
:1017C000F5CF1AF0000E0A6E0A0E096E2DC007F052
:1017D000086A34EC12F0090E07240F6E000E082080
:1017E000106E000E126E030E116E8CEC13F0500E84
:1017F0000F24F66E080E1020F76E0900F5CF15F0D5
:101800000900F5CF16F00A00F5CF17F0E0EC0FF065
:1018100015C02AF016C02BF017C02CF02AC015F006
:101820002BC016F02CC017F0000E186E000E196EAB
:101830003F0E1A6EE0EC0FF099D72D50030D500EAD
:10184000F324F66E080EF420F76E0900F5CF15F0BC
:101850000900F5CF16F00A00F5CF17F0000E186E4C
:10186000000E196E3F0E1A6EE0EC0FF015C024F05A
:1018700016C025F017C026F0120030C034F0356ACB
:10188000366A2F34343601E335803450396E33C034
:1018900034F0356A366A3234343601E335803450F8
:1018A000386E3950D8B40BD03850395CD8B00ED01F
:1018B000395000083824346E180E346407D031C013
:1018C0002EF032C02FF033C030F012003850D8B4B0
:1018D0000BD03950385CD8B00ED0385000083924BD
:1018E000346E180E346407D02EC02EF02FC02FF0A7
:1018F00030C030F01200060E376E30BE378E33BE69
:10190000378C2F8EFF0E2E16FF0E2F16000E301660
:10191000328EFF0E3116FF0E3216000E331638507F
:10192000395CD8B01BD0D8903136323633363806D1
:1019300039503818D8B40DD0370637C034F0070EF8
:101940003416D8B406D0EFD7D89030322F322E329A
:10195000392A38503918D8B41FD0F6D73950385CE6
:10196000D8B01AD0D8902E362F36303639063950A6
:101970003818D8B40DD0370637C034F0070E3416F7
:10198000D8B406D0EFD7D890333232323132382A39
:1019900038503918D8A4F7D737AE0CD0FF0E2E1A0E
:1019A000FF0E2F1AFF0E301A010E2E26000E2F22C8
:1019B000000E302237AC0CD0FF0E311AFF0E321A57
:1019C000FF0E331A010E3126000E3222000E332292
:1019D000000E376E2E5031262F50322230503322D7
:1019E00033AE0ED0FF0E311AFF0E321AFF0E331A2D
:1019F000010E3126000E3222000E3322010E376E08
:101A000031C001F032C002F033C003F039C004F03D
:101A100037C005F04DEC11F001C02EF002C02FF0E0
:101A200003C030F0120003C007F0086A096A0234EC
:101A3000073601E3088007500F6E0F50D8A409D075
:101A4000000E016E000E026E000E036E000E046E9C
:101A5000120006C007F0086A096A0534073601E378
:101A6000088007500E6E0E50D8A409D0000E016EEB
:101A7000000E026E000E036E000E046E1200028E47
:101A8000FF0E0116FF0E0216000E0316058EFF0E46
:101A90000416FF0E0516000E0616000E0A6E000E46
:101AA0000B6E000E0C6E000E0D6E7F0E0F5E0E5054
:101AB000980F0F5E180E0E6ED8900A360B360C3645
:101AC0000D360450015C0550025806500358D8A04A
:101AD00007D00450015E0550025A0650035A0A808E
:101AE000D8900136023603360E2EE6D70FAE16D04A
:101AF0000F50800A970FD8B009D0000E016E000E6B
:101B0000026E000E036E000E046E1200D8900D32AD
:101B10000C320B320A320F3EF9D715D0170E0F6474
:101B20000FD0000E016E000E026E000E036E000E4E
:101B3000046E1200D8900A360B360C360D360F069E
:101B40000F50D8A4F7D70AC001F00BC002F00CC0A8
:101B500003F00DC004F0120094909284720ED36EC4
:101B60009268000E956E000E936ED6EC0EF0010E8C
:101B7000D4EC10F00C0ED4EC10F0000E9FEC13F02F
:101B800001C009F002C00AF070EC13F009C015F0B2
:101B90000AC016F00BC017F0000E186E000E196E7A
:101BA000400E1A6EE0EC0FF015C08DF016C08EF0EE
:101BB00017C08FF0790E406E000E416E770E426EA8
:101BC000080E436E8DC044F08EC045F08FC046F0C5
:101BD0004BEC04F0040E046E790E056E000E066EDA
:101BE000010EECEC11F0030E4E6E080E4D6E770EEA
:101BF000E82EFED74D2EFCD74E2EFAD700F0000E61
:101C0000016EC80E026E420E036E8DC004F08EC0CF
:101C100005F08FC006F0A4EC11F0D8B00AD0040E85
:101C2000046E8E0E056E080E066E020EECEC11F0C0
:101C300023D0000E016EF00E026E410E036E8DC0B9
:101C400004F08EC005F08FC006F0A4EC11F0D8B0FF
:101C50000AD0040E046E7F0E056E080E066E020E8C
:101C6000ECEC11F009D0040E046E870E056E080E20
:101C7000066E020EECEC11F080A402D082807DD7BB
:101C800082907BD7033404340C6E0C50D8A409D056
:101C9000000E016E000E026E000E036E000E046E4A
:101CA0001200063407340B6E0B50D8A409D0000E76
:101CB000016E000E026E000E036E000E046E120026
:101CC000038EFF0E0116FF0E0216FF0E0316000E06
:101CD0000416068EFF0E0416FF0E0516FF0E0616DE
:101CE000000E0716000E076E000E086E000E096E3D
:101CF000000E0A6E7F0E0C5E0B50A00F0C5E200EC5
:101D00000B6ED8900736083609360A360450015C47
:101D1000055002580650035807500458D8A009D05F
:101D20000450015E0550025A0650035A0750045AE7
:101D30000780D89001360236033604360B2EE1D7E1
:101D40000CAE16D00C50800A9F0FD8B009D0000EF0
:101D5000016E000E026E000E036E000E046E120085
:101D6000D8900A320932083207320C3EF9D715D022
:101D70001F0E0C640FD0000E016E000E026E000EDE
:101D8000036E000E046E1200D8900736083609362E
:101D90000A360C060C50D8A4F7D707C001F008C0CB
:101DA00002F009C003F00AC004F01200959E959C51
:101DB000959A959895969594839E839C839A8398FB
:101DC000839683940F0E046E480EE82EFED7042EE1
:101DD000FCD70F0E046E480EE82EFED7042EFCD75B
:101DE0000F0E046E480EE82EFED7042EFCD70F0E01
:101DF000046E480EE82EFED7042EFCD70F0E046E9C
:101E0000480EE82EFED7042EFCD70F0E046E480EA7
:101E1000E82EFED7042EFCD7010E056E030E0564D6
:101E200001D01FD0839E839C838A8388839683946A
:101E3000839E839C838A838883868394030EE82E03
:101E4000FED700F0839E839C838A83888396839445
:101E50000F0E046E480EE82EFED7042EFCD7052A7E
:101E6000DDD7839E839C838A839883968394839E05
:101E7000839C838A839883868394030EE82EFED7FF
:101E800000F0839E839C838A8398839683940F0EAD
:101E9000046E480EE82EFED7042EFCD7280E056EE1
:101EA0000550D4EC10F0100E056E0550D4EC10F077
:101EB000010E056E0550D4EC10F00F0E056E0550A6
:101EC000D4EC10F01200036E83968384016A03AE93
:101ED00001D0012A0130D8A002D0838E01D0839E88
:101EE00003C001F0060E026ED8900132022EFCD71C
:101EF0000130D8A002D0838C01D0839C03C001F0B4
:101F0000050E026ED8900132022EFCD70130D8A007
:101F100002D0838A01D0839A03C001F0013A0F0EE8
:101F200001160130D8A002D0838801D08398060E14
:101F3000E82EFED700D08386030EE82EFED700F0F1
:101F4000839603C001F0D8900132D8900132D89026
:101F500001320130D8A002D0838E01D0839E03C00D
:101F600001F0D8900132D89001320130D8A002D0CF
:101F7000838C01D0839C03C001F0D89001320130E2
:101F8000D8A002D0838A01D0839A03A002D083888C
:101F900001D08398060EE82EFED700D08386030E6C
:101FA000E82EFED700F08396030EE82EFED700F051
:101FB0000F0E016E480EE82EFED7012EFCD7120040
:101FC00017C01BF01C6A1D6A16341B3601E31C8007
:101FD0001B501E6E1E50D8A407D0000E156E000EAA
:101FE000166E000E176E12001AC01BF01C6A1D6AD6
:101FF00019341B3601E31C801B50236E2350D8A4D8
:1020000007D0000E156E000E166E000E176E120031
:1020100023507B0F1E2617C023F01A50231A800E60
:102020002316168E198EFF0E1816FF0E1916000EA7
:102030001A16000E1F6E000E206E000E216E070E87
:10204000226E15A006D018501F26195020221A50B3
:102050002122D890173216321532D89018361936F8
:102060001A36222EEED7090E226E15A006D0185071
:102070001F26195020221A502122D89017321632CA
:102080001532D890213220321F32222EEED71FC0B7
:1020900001F020C002F021C003F01EC004F023C0F4
:1020A00005F04DEC11F001C015F002C016F003C0B0
:1020B00017F012002DC02FF0306A316A2C342F3601
:1020C00001E330802F50396E3950D8A409D0000E6A
:1020D0002B6E000E2C6E000E2D6E000E2E6E12005A
:1020E000170E2F6E2BC030F02CC031F02DC032F007
:1020F0002F28336E04D0D890323231323032332E22
:10210000FAD73050346E2C8EFF0E2B16FF0E2C1685
:10211000000E2D162B50356E2C50366E2D50376E0E
:10212000386A8E0E395E39AE16D03950800A8F0F5C
:10213000D8B009D0000E2B6E000E2C6E000E2D6E46
:10214000000E2E6E1200D8903832373236323532C9
:10215000393EF9D715D0170E39640FD0000E2B6E0B
:10216000000E2C6E000E2D6E000E2E6E1200D890FA
:10217000353636363736383639063950D8A4F7D79B
:102180003450D8B408D0381E371E361E356C000EB9
:1021900036223722382235C02BF036C02CF037C01B
:1021A0002DF038C02EF01200036E83968394016ADE
:1021B00003AE01D0012A0130D8A002D0838E01D015
:1021C000839E03C001F0060E026ED8900132022EEB
:1021D000FCD70130D8A002D0838C01D0839C03C0EF
:1021E00001F0050E026ED8900132022EFCD70130AC
:1021F000D8A002D0838A01D0839A03C001F0013AAB
:102200000F0E01160130D8A002D0838801D0839828
:10221000060EE82EFED700D08386030EE82EFED7EA
:1022200000F0839603C001F0D8900132D8900132BB
:10223000D89001320130D8A002D0838E01D0839E85
:1022400003C001F0D8900132D89001320130D8A0FB
:1022500002D0838C01D0839C03C001F0D89001325E
:102260000130D8A002D0838A01D0839A03A002D083
:10227000838801D08398060EE82EFED700D083868F
:10228000030EE82EFED700F083960F0E016E480E67
:10229000E82EFED7012EFCD712000450D8B405D08A
:1022A000015002100310D8A40CD0000E016E000ED5
:1022B000026E000E036E1200042AD890033202321E
:1022C0000132000E0114066E000E0214076EFE0E9F
:1022D0000314086E065007100810D8B40CD0ECD7C1
:1022E000042A010E0126000E0222000E0322D890BD
:1022F000033202320132000E0114066E000E021487
:10230000076EFF0E0314086E065007100810D8B4AD
:1023100006D0E6D70406D89001360236033602BE50
:1023200003D0020E0460F6D704A0029ED8900432B7
:10233000045003120550D8A4038E01C001F002C05E
:1023400002F003C003F0120003AE16D001C007F084
:1023500002C008F003C009F0071E081E091E072A64
:10236000000E08220922000E0724016E000E08202C
:10237000026E800E0920036E06AE16D004C007F070
:1023800005C008F006C009F0071E081E091E072A2E
:10239000000E08220922000E0724046E000E0820F9
:1023A000056E800E0920066E000E011A000E021A3C
:1023B000800E031A000E041A000E051A800E061A6B
:1023C0000450015C0550025806500358D8B002D0A2
:1023D000D8901200D8801200076E0DD00450800FE4
:1023E00008D00450C00F05D00450940F02D0045000
:1023F000D40F086E0DD00750010AD8B4EFD7030AE6
:10240000D8B4EFD7010AD8B4EFD7070AD8B4EFD7BA
:102410000850D4EC10F014D005C0F6FF06C0F7FF4A
:10242000F86A070EF76403D00800F55005D0F6CF20
:10243000E9FFF7CFEAFFEF5063EC0FF0054A062AF9
:1024400005C0F6FF06C0F7FFF86A070EF76403D071
:102450000800F55005D0F6CFE9FFF7CFEAFFEF50BF
:102460000009D8B41200D8D7000E0C6E0AAE06D000
:10247000096C0A1ED8B00A2A010E0C6E08AE06D0EE
:10248000076C081ED8B0082A010E0C1A000E0E6E3A
:10249000000E0D6E09500A10D8B41CD0010E0B6E40
:1024A00004D0D89009360A360B2A0AAEFAD7D8904B
:1024B0000D360E360950075C0A500858D8A005D0D2
:1024C0000950075E0A50085A0D80D8900A32093226
:1024D0000B2EEDD70C50D8B404D00D6C0E1ED8B016
:1024E0000E2A0DC007F00EC008F01200000E096E93
:1024F000000E0A6E000E0B6E000E0C6E05500610DC
:1025000007100810D8B42AD0010E0D6E06D0D8904E
:1025100005360636073608360D2A08AEF8D7D890A5
:1025200009360A360B360C360550015C0650025847
:102530000750035808500458D8A009D00550015E30
:102540000650025A0750035A0850045A0980D8907E
:1025500008320732063205320D2EE1D709C001F0EC
:102560000AC002F00BC003F00CC004F01200000E11
:10257000066E02AE06D0016C021ED8B0022A010E11
:10258000066E04AE04D0036C041ED8B0042A0350B7
:102590000410D8B418D0010E056E04D0D8900336BC
:1025A0000436052A04AEFAD70350015C04500258E1
:1025B000D8A004D00350015E0450025AD8900432CF
:1025C0000332052EF1D70650D8B404D0016C021E98
:1025D000D8B0022A01C001F002C002F0120005507A
:1025E000061007100810D8B424D0010E096E06D0CA
:1025F000D8900536063607360836092A08AEF8D7C9
:102600000550015C06500258075003580850045802
:10261000D8A008D00550015E0650025A0750035A50
:102620000850045AD8900832073206320532092E73
:10263000E7D701C001F002C002F003C003F004C0FC
:1026400004F012008E0E116E06D0D8900C320B32B0
:102650000A320932112A000E09140D6E000E0A14F6
:102660000E6E000E0B140F6EFF0E0C14106E0D503C
:102670000E100F101010D8A4E8D709C001F00AC03E
:1026800002F00BC003F011C004F0000E056E4DEC1B
:1026900011F001C009F002C00AF003C00BF01200F3
:1026A0003D503E103F10D8B406D0000E3D1A000E2B
:1026B0003E1A800E3F1A3AC02EF03BC02FF03CC0AD
:1026C00030F03DC031F03EC032F03FC033F03DEC61
:1026D0000CF02EC03AF02FC03BF030C03CF012009E
:1026E000000E0C6E0AAE06D0096C0A1ED8B00A2A7B
:1026F000010E0C6E09C001F00AC002F0036A8E0ED2
:10270000046E0CC005F04DEC11F001C009F002C0E0
:102710000AF003C00BF012000F501102F3CF13F0B8
:10272000F4CF14F00F501202F3501426105011027F
:10273000F350142613C00FF014C010F01200036EF3
:102740000D0EC16E03D0020EC26E04D00350000AFB
:10275000D8B4F9D7290EC06EC280C282C4CF01F0AE
:10276000026A1200015002100310D8B406D0000E05
:10277000011A000E021A800E031A01C001F002C0F5
:1027800002F003C003F01200036E000E026E3A0E58
:10279000036005D02F0E036402D0010E026E02C04A
:1027A00001F001301200000EF86E0001ACEF0DF0E8
:020000040020DA
:08000000FFFFFFFFFFFFFFFF00
:020000040030CA
:0E00000000051F1EFF8385FF0FC00FE00F409D
:00000001FF
