:040000002CEF3DF0B4
:107A580000EE29F0070EEE6AE806FDE100017FEF6F
:107A68003FF009C001F00AC002F0036A8E0E046EEE
:107A7800000E056EC1EC3DF001C009F002C00AF02D
:107A880003C00BF01200000E066E02AE06D0016CA9
:107A9800021ED8B0022A010E066E04AE04D0036C92
:107AA800041ED8B0042A03500410D8B418D0010E0C
:107AB800056E04D0D89003360436052A04AEFAD7EA
:107AC8000350015C04500258D8A004D00350015E52
:107AD8000450025AD89004320332052EF1D70650CA
:107AE800D8B404D0016C021ED8B0022A01C001F03B
:107AF80002C002F01200000E066E04AE06D0036C3F
:107B0800041ED8B0042A010E066E02AE06D0016C1F
:107B1800021ED8B0022A010E061A000E086E000EC8
:107B2800076E03500410D8B41CD0010E056E04D0A3
:107B3800D89003360436052A04AEFAD7D89007360B
:107B480008360350015C04500258D8A005D00350F1
:107B5800015E0450025A0780D89004320332052E81
:107B6800EDD70650D8B404D0076C081ED8B0082A40
:107B780007C001F008C002F012000450D8B405D0C4
:107B8800015002100310D8A40CD0000E016E000E94
:107B9800026E000E036E1200042AD89003320232DD
:107BA8000132000E0114066E000E0214076EFE0E5E
:107BB8000314086E065007100810D8B40CD0ECD780
:107BC800042A010E0126000E0222000E0322D8907C
:107BD800033202320132000E0114066E000E021446
:107BE800076EFF0E0314086E065007100810D8B46D
:107BF80006D0E6D70406D89001360236033602BE10
:107C080003D0020E0460F6D704A0029ED890043276
:107C1800045003120550D8A4038E01C001F002C01D
:107C280002F003C003F012001AC01EF01F6A206A97
:107C380019341E3601E31F801E50256E2550D8A426
:107C480007D0000E186E000E196E000E1A6E120084
:107C58001DC01EF01F6A206A1C341E3601E31F80F7
:107C68001E50266E2650D8A407D0000E186E000E9F
:107C7800196E000E1A6E1200000E226E000E236E90
:107C8800000E246E2650890F255E1AC026F01D505E
:107C9800261A800E2616198EFF0E1816FF0E1916B4
:107CA800000E1A161C8EFF0E1B16FF0E1C16000E59
:107CB8001D16180E216ED8902236233624361B50F6
:107CC800185C1C5019581D501A58D8A007D01B50C2
:107CD800185E1C50195A1D501A5A2280D89018360E
:107CE80019361A36212EE7D722C001F023C002F038
:107CF80024C003F025C004F026C005F0C1EC3DF017
:107D080001C018F002C019F003C01AF012000BC02D
:107D18000FF0106A116A0A340F3601E310800F5011
:107D2800126E1250D8A407D0000E096E000E0A6E0B
:107D3800000E0B6E12000EC00FF0106A116A0D349F
:107D48000F3601E310800F50176E1750D8A407D0D4
:107D5800000E096E000E0A6E000E0B6E1200175010
:107D68007B0F12260BC017F00E50171A800E17162D
:107D78000A8E0D8EFF0E0C16FF0E0D16000E0E1637
:107D8800000E136E000E146E000E156E070E166EA2
:107D980009A006D00C5013260D5014220E5015229F
:107DA800D8900B320A320932D8900C360D360E367E
:107DB800162EEED7090E166E09A006D00C50132603
:107DC8000D5014220E501522D8900B320A32093267
:107DD800D890153214321332162EEED713C001F094
:107DE80014C002F015C003F012C004F017C005F06B
:107DF800C1EC3DF001C009F002C00AF003C00BF06D
:107E0800120003C005F0066A076A0234053601E36A
:107E1800068005500F6E0F50D8A409D0000E016ED1
:107E2800000E026E000E036E000E046E1200170E96
:107E3800056E01C006F002C007F003C008F005286F
:107E4800096E04D0D890083207320632092EFAD7C4
:107E580006500A6E028EFF0E0116FF0E0216000E65
:107E6800031601500B6E02500C6E03500D6E0E6A15
:107E78008E0E0F5E0FAE16D00F50800A8F0FD8B03F
:107E880009D0000E016E000E026E000E036E000E89
:107E9800046E1200D8900E320D320C320B320F3EA7
:107EA800F9D715D0170E0F640FD0000E016E000E13
:107EB800026E000E036E000E046E1200D8900B3690
:107EC8000C360D360E360F060F50D8A4F7D70A50C9
:107ED800D8B408D00E1E0D1E0C1E0B6C000E0C2202
:107EE8000D220E220BC001F00CC002F00DC003F0F1
:107EF8000EC004F01200000E956E9282C150F00B75
:107F08000D09C16EC08EC198C19AC294C296C2981A
:107F1800C29AC050F80B0109C06EC280140EE82E38
:107F2800FED7C282C2B2FED7C4CF2CF02D6A2C5025
:107F3800276EC3502C6E27C02DF02CC009F02DC021
:107F48000AF035EC3DF009C029F00AC02AF00BC050
:107F58002BF0000E0C6EFA0E0D6E430E0E6E29C03D
:107F680009F02AC00AF02BC00BF08BEC3EF009C0D8
:107F780018F00AC019F00BC01AF0C00E1B6E7F0E65
:107F88001C6E440E1D6E18EC3EF018C029F019C086
:107F98002AF01AC02BF029C001F02AC002F02BC029
:107FA80003F005EC3FF001502E6E2EC001F0026A7E
:107FB800000E046E0A0E036E47EC3DF00150100FE0
:107FC800836E820E276EDE0EE82EFED7272EFCD794
:107FD8002EC001F0026A000E046E0A0E036E7FECDA
:107FE8003DF00150200F836E820E276EDE0EE82EC4
:087FF800FED7272EFCD795D718
:020000040020DA
:08000000FFFFFFFFFFFFFFFF00
:020000040030CA
:0E000000000B1F1EFF8385FF0FC00FE00F4097
:00000001FF
