:0400000018EF08F0FD
:050800000020200000B3
:100806003B509EEC08F03B6E3C509EEC08F03C6E74
:100816003D509EEC08F03D6E38509EEC08F0386E68
:1008260039509EEC08F0396E3A509EEC08F03A6E5C
:100836003DC021F0226A000E246E0A0E236E0CECD7
:1008460007F02150300F186E3DC021F0226A000ECD
:10085600246E0A0E236E8FEC07F02150300F196EAE
:100866003CC021F0226A000E246E0A0E236E0CECA8
:1008760007F02150300F1B6E3CC021F0226A000E9B
:10088600246E0A0E236E8FEC07F02150300F1C6E7B
:100896003BC021F0226A000E246E0A0E236E0CEC79
:1008A60007F02150300F1E6E3BC021F0226A000E69
:1008B600246E0A0E236E8FEC07F02150300F1F6E48
:1008C60038C021F0226A000E246E0A0E236E0CEC4C
:1008D60007F02150300F076E38C021F0226A000E53
:1008E600246E0A0E236E8FEC07F02150300F086E2F
:1008F60039C021F0226A000E246E0A0E236E0CEC1B
:1009060007F02150300F0A6E39C021F0226A000E1E
:10091600246E0A0E236E8FEC07F02150300F0B6EFB
:100926003AC021F0226A000E246E0A0E236E0CECE9
:1009360007F02150300F0F6E3AC021F0226A000EE8
:10094600246E0A0E236E8FEC07F02150300F106EC6
:10095600010E246E010EF7EC07F0120E236E000E48
:10096600246E0EEC06F0020E246E010EF7EC07F074
:10097600010E236E000E246E0EEC06F01200720EAF
:10098600D36E0F0EC16E030E926EA00E2E6E860EE5
:100996002F6E010E306E000E316EC7EC07F06CEC58
:1009A60006F080B06CD04FEC08F0D8A068D0000EEE
:1009B600376E010E296E3DC02AF0070E7DEC05F05C
:1009C6003D6E010E296E3CC02AF00A0E7DEC05F044
:1009D6003C6E020E296E38C02AF0070E7DEC05F03B
:1009E600386E020E296E39C02AF00A0E7DEC05F02B
:1009F600396E020E296E3AC02AF00F0E7DEC05F014
:100A06003A6E4FEC08F0D8B0FCD73C5034EC08F006
:100A16003C6E3D5034EC08F03D6E385034EC08F036
:100A2600386E395034EC08F0396E3A5034EC08F030
:100A36003A6ED0EC08F0D00EB3EC08F0000EB3EC32
:100A460008F0000EB3EC08F03C50B3EC08F03D5053
:100A5600B3EC08F0010EB3EC08F03850B3EC08F034
:100A66003950B3EC08F03A50B3EC08F0CCEC08F08F
:100A7600340E366EF20EE82EFED7362EFCD7D0ECAC
:100A860008F0D00EB3EC08F0000EB3EC08F0D4EC8E
:100A960008F0D10EB3EC08F0BAEC08F03B6EC6ECE9
:100AA60008F0BAEC08F03C6EC6EC08F0BAEC08F0B8
:100AB6003D6EC6EC08F0BAEC08F0C6EC08F0BAECED
:100AC60008F0386EC6EC08F0BAEC08F0396EC6ECE1
:100AD60008F0BAEC08F03A6EC0EC08F0CCEC08F07E
:100AE60003EC04F00D0E366EFC0EE82EFED7362E05
:100AF600FCD757D72C6E4FEC08F0D8A053D0FBD7B5
:100B06002A2A3750D8A405D0170E2A6402D0000E20
:100B16002A6E3704D8A405D03B0E2A6402D0000EF4
:100B26002A6E020E3718D8A405D01F0E2A6402D0EA
:100B3600010E2A6E030E3718D8A405D00C0E2A64AF
:100B460002D0010E2A6E040E3718D8A405D0630E03
:100B56002A6402D0000E2A6E29C024F02C50F7EC2D
:100B660007F02AC021F0226A000E246E0A0E236EB8
:100B76000CEC07F02150300FA9EC08F02AC021F048
:100B8600226A000E246E0A0E236E8FEC07F02150A7
:100B9600300FA9EC08F0340E2B6EF20EE82EFED7BD
:100BA6002B2EFCD780A2ACD729C024F02C50F7EC12
:100BB60007F0010E236E080E246E0EEC06F08EEC86
:100BC60008F029C024F02C50F7EC07F02AC021F0D9
:100BD600226A000E246E0A0E236E0CEC07F02150DA
:100BE600300FA9EC08F02AC021F0226A000E246E0C
:100BF6000A0E236E8FEC07F02150300FA9EC08F097
:100C06008EEC08F080B0CED74FEC08F0D8A0CAD74B
:100C1600372A2A501200000E286E3E803CD02850FB
:100C2600010D23C025F024C026F0F3502526F450EC
:100C3600262225C0F6FF26C0F7FFF86A070EF764DE
:100C460003D00800F55005D0F6CFE9FFF7CFEAFF4D
:100C5600EF50276E27380F0BC6EC06F02850010D13
:100C660023C025F024C026F0F3502526F450262272
:100C760025C0F6FF26C0F7FFF86A070EF76403D013
:100C86000800F55005D0F6CFE9FFF7CFEAFFEF50A1
:100C9600C6EC06F0282A2850010D23C025F024C0F2
:100CA60026F0F3502526F450262225C0F6FF26C04E
:100CB600F7FFF86A070EF76403D00800F55005D071
:100CC600F6CFE9FFF7CFEAFFEF500009D8B41200DC
:100CD600A6D73E908C908C928C948C968C988C9AFD
:100CE60095909592959495969598959A0B0E246E57
:100CF600620EE82EFED7242EFCD700D0030E69EC38
:100D060008F0C80E00D0E82EFDD7030E69EC08F0F7
:100D1600C80E00D0E82EFDD7030E69EC08F0C80E09
:100D260000D0E82EFDD7020E69EC08F0C80E00D000
:100D3600E82EFDD7280E69EC08F00D0E246EFC0E89
:100D4600E82EFED7242EFCD70C0E69EC08F00D0E0B
:100D5600246EFC0EE82EFED7242EFCD7010E69EC7D
:100D660008F00D0E246EFC0EE82EFED7242EFCD7BE
:100D7600060E69EC08F00D0E246EFC0EE82EFED76A
:100D8600242EFCD71200226E3EA002D08C8001D009
:100D96008C9022C021F0010E2116214621468C504E
:100DA6002118FB0B21188C6E22C021F0D89021321D
:100DB600010E21162146214621468C502118F70B9B
:100DC60021188C6E22C021F0D8902132D890213281
:100DD600010E2116213A8C502118EF0B21188C6E2A
:100DE60022C021F0D8902132D8902132D8902132D9
:100DF600010E2116213A21468C502118DF0B2118AD
:100E06008C6E8C928C828C92060EE82EFED700D0C9
:100E16001200000E266E24AE06D0236C241ED8B017
:100E2600242A010E266E22AE06D0216C221ED8B0D0
:100E3600222A010E261A000E286E000E276E235057
:100E46002410D8B41CD0010E256E04D0D8902336B9
:100E56002436252A24AEFAD7D890273628362350AA
:100E6600215C24502258D8A005D02350215E24505E
:100E7600225A2780D89024322332252EEDD72650A9
:100E8600D8B404D0276C281ED8B0282A27C021F051
:100E960028C022F01200000E296E000E2A6E000EE7
:100EA6002B6E000E2C6E2550261027102810D8B455
:100EB6002AD0010E2D6E06D0D89025362636273636
:100EC60028362D2A28AEF8D7D89029362A362B363A
:100ED6002C362550215C265022582750235828505E
:100EE6002458D8A009D02550215E2650225A2750D2
:100EF600235A2850245A2980D8902832273226325D
:100F060025322D2EE1D729C021F02AC022F02BC090
:100F160023F02CC024F01200000E266E22AE06D05E
:100F2600216C221ED8B0222A010E266E24AE04D0D1
:100F3600236C241ED8B0242A23502410D8B418D0E9
:100F4600010E256E04D0D89023362436252A24AEE9
:100F5600FAD72350215C24502258D8A004D023501D
:100F6600215E2450225AD89024322332252EF1D7DE
:100F76002650D8B404D0216C221ED8B0222A21C013
:100F860021F022C022F0120093809382C79CC78E64
:100F9600C68AC650F00B0809C66E000EC56E000E56
:100FA600216E350E226E0C0E236E000E246E2EC0A0
:100FB60032F02FC033F030C034F031C035F0020EBD
:100FC600D8903236333634363536E82EF9D732C035
:100FD60025F033C026F034C027F035C028F04EEC9B
:100FE60007F02104C86E1200256E14D02550BF0FDD
:100FF60069EC08F012002550930F69EC08F0120016
:101006002550D30F69EC08F0120025507F0F69ECCC
:1010160008F012002450020AD8B4E8D7010AD8B45E
:10102600EAD7070AD8B4ECD7F0D7FC0EF66E100E46
:10103600F76E000EF86E00EE01F010EE20F00900DB
:10104600F5CFEEFFE550E150FAE13E6A00EE37F0EB
:10105600070EEE6AE806FDE1000EF86E0001C2EF2B
:1010660004F02B6E2BC021F0226A000E246E0A0EAD
:10107600236E8FEC07F021C029F022C02AF02BC086
:1010860021F0226A000E246E0A0E236E0CEC07F085
:101096002138F00B29241200000E226E000E236E5A
:1010A600040E236401D00BD080A0222A030E216EE9
:1010B600980EE82EFED7212EFCD7232AF1D7020E52
:1010C600226402D0D8801200D8901200236E3E907F
:1010D60023380F0BC6EC06F02350C6EC06F02304AB
:1010E600D8B404D0020E2318D8A41200850EE82E18
:1010F600FED700F01200444154453A2030302F30DC
:10110600302F323030300054494D453A2030303A95
:1011160030303A303000000E216E05D0212AC80E3C
:1011260000D0E82EFDD7640E2160120080A01200C8
:1011360080A21200F3D7226E22C021F00F0E2116D4
:1011460022380F0B0A0DF35021241200236E3E8025
:1011560023380F0BC6EC06F02350C6EC06F012003F
:10116600216E9E9621C0C9FF9EB61200FDD79E969F
:10117600C5869EA6FED7C95012009E96C58AC5880A
:101186009EB61200FDD79E96C59AC5889EB61200D9
:10119600FDD7C584C5A41200FDD7C580C5A0120021
:0A11A600FDD7C582C5A21200FDD7D7
:020000040020DA
:08000000FFFFFFFFFFFFFFFF00
:020000040030CA
:0E0000000005191EFF8381FF0FC00FE00F40A7
:00000001FF
