:0400000055EF08F0C0
:100800000001000A006400E80310274279206C759B
:10081000697320526976657261004375656E746113
:1008200020253033640046554E43494F4E410079F0
:1008300065730000110E176E000E186E2FD1250E75
:100840001F18D8B409D00DC0D9FF0EC0DAFF1FC0E1
:10085000DFFF0D4A0E2A22D1000E1E6E000E1D6E05
:10086000000E1C6E03D01C840F4A102A0FC0F6FF26
:1008700010C0F7FF0800F550300AD8B4F4D70FC005
:10088000F6FF10C0F7FF0800F55046EC08F0D8A0BE
:1008900032D0000E1E6E000E1D6E1DC001F01EC077
:1008A00002F0000E046E0A0E036E33EC08F001C075
:1008B0001DF002C01EF0D00E136EFF0E146E0FC09E
:1008C000F6FF10C0F7FF0800F550156E166A1350BA
:1008D00015261450162215501D2616501E220F4A9A
:1008E000102A0FC0F6FF10C0F7FF0800F55046ECC5
:1008F00008F0D8B0D2D70FC0F6FF10C0F7FF0F4AEC
:10090000102A0800F5CF1FF01F50000AD8B4D2D02B
:10091000640AD8B403D00D0AD8A4C0D017C0D9FF38
:1009200018C0DAFFDECF1AF0DDCF1BF0020E17265B
:10093000000E18221BAE06D0030E1C121A6C1B1ED2
:10094000D8B01B2A010E1F6E050E1F18D8B412D086
:100950001F50020D010EF324F66E080EF420F76E00
:100960000900F5501A5C0900F5501B58D8A002D0B8
:100970001F2AEAD71D501E10D8B409D01CC013F08E
:10098000030E1316D8B403D01D06D8A01E06800E81
:100990001FBE7F0E136E1D501F5C1E50800A135821
:1009A000D8B007D01F501D5E000E1FBEFF0E1E5A8E
:1009B00004D0000E1E6E000E1D6E1CA41ED01CC0A6
:1009C00013F0030E1316D8B408D00DC0D9FF0EC013
:1009D000DAFF2D0EDF6E0D4A0E2A1D501E10D8B400
:1009E0002DD00DC0D9FF0EC0DAFF300EDF6E0D4ADC
:1009F0000E2A1D06D8A01E06F0D71D501E10D8B412
:100A00000FD00DC0D9FF0EC0DAFF200EDF6E0D4AE9
:100A10000E2A1D06D8A01E061D501E10D8A4F1D700
:100A20001CC013F0030E1316D8B408D00DC0D9FFA4
:100A30000EC0DAFF2D0EDF6E0D4A0E2A1FC019F010
:100A400029D01950020D010EF324F66E080EF42081
:100A5000F76E0900F5CF03F00A00F5CF04F01AC0D5
:100A600001F01BC002F0E9EC07F001C008F002C081
:100A700009F0000E0B6E0A0E0A6E12EC08F0085018
:100A8000300F1F6E0DC0D9FF0EC0DAFF1FC0DFFF91
:100A90000D4A0E2A19061928D8A4D3D70FC0F6FF7D
:100AA00010C0F7FF0F4A102A0800F5CF1FF01F50A3
:100AB000D8A4C5D60DC0D9FF0EC0DAFF000EDF6E78
:100AC0001200720ED36EC16801EC06F0010E0BEC41
:100AD00007F00C0E0BEC07F0020E216E040E206ED8
:100AE000BA0EE82EFED7202EFCD7212EFAD787D0BB
:100AF000030E366E3650D8B423D0220E0D6E000E83
:100B00000E6E1A0E0F6E080E106E36C011F0126ABD
:100B10001AEC04F0010E046E220E056E000E066E35
:100B2000010EB8EC07F00B0E216E260E206E5E0E45
:100B3000E82EFED7202EFCD7212EFAD73606DAD79C
:100B4000010E046E0B0E056E080E066E020E84EC8E
:100B500007F0070E216E170E206E6A0EE82EFED7E4
:100B6000202EFCD7212EFAD700D00F0E0BEC07F069
:100B70000B0E216E260E206E5E0EE82EFED7202E66
:100B8000FCD7212EFAD70E0E0BEC07F00B0E216EC0
:100B9000260E206E5E0EE82EFED7202EFCD7212ECC
:100BA000FAD70C0E0BEC07F00B0E216E260E206E02
:100BB0005E0EE82EFED7202EFCD7212EFAD7010E8E
:100BC0000BEC07F0040E046E260E056E080E066E82
:100BD000010E84EC07F0040E046E2F0E056E080E55
:100BE000066E020E84EC07F0150E216E4B0E206E81
:100BF000BE0EE82EFED7202EFCD7212EFAD700D02D
:100C000077D7959E959C959A959895969594839E61
:100C1000839C839A8398839683940F0E046E480E68
:100C2000E82EFED7042EFCD70F0E046E480EE82ED9
:100C3000FED7042EFCD70F0E046E480EE82EFED70A
:100C4000042EFCD70F0E046E480EE82EFED7042E9D
:100C5000FCD70F0E046E480EE82EFED7042EFCD7EC
:100C60000F0E046E480EE82EFED7042EFCD7010EA0
:100C7000056E030E056401D01FD0839E839C838A7A
:100C8000838883968394839E839C838A83888386C8
:100C90008394030EE82EFED700F0839E839C838A04
:100CA0008388839683940F0E046E480EE82EFED739
:100CB000042EFCD7052ADDD7839E839C838A8398E4
:100CC00083968394839E839C838A8398838683946C
:100CD000030EE82EFED700F0839E839C838A8398C0
:100CE000839683940F0E046E480EE82EFED7042ED2
:100CF000FCD7280E056E05500BEC07F0100E056EA4
:100D000005500BEC07F0010E056E05500BEC07F0DB
:100D10000F0E056E05500BEC07F01200036E839664
:100D20008384016A03AE01D0012A0130D8A002D029
:100D3000838E01D0839E03C001F0060E026ED89010
:100D40000132022EFCD70130D8A002D0838C01D012
:100D5000839C03C001F0050E026ED8900132022E72
:100D6000FCD70130D8A002D0838A01D0839A03C077
:100D700001F0013A0F0E01160130D8A002D083888D
:100D800001D08398060EE82EFED700D08386030E8E
:100D9000E82EFED700F0839603C001F0D890013210
:100DA000D8900132D89001320130D8A002D0838E81
:100DB00001D0839E03C001F0D8900132D890013257
:100DC0000130D8A002D0838C01D0839C03C001F0F5
:100DD000D89001320130D8A002D0838A01D0839A02
:100DE00003A002D0838801D08398060EE82EFED798
:100DF00000D08386030EE82EFED700F08396030E04
:100E0000E82EFED700F00F0E016E480EE82EFED73A
:100E1000012EFCD71200036E83968394016A03AE01
:100E200001D0012A0130D8A002D0838E01D0839E48
:100E300003C001F0060E026ED8900132022EFCD7DC
:100E40000130D8A002D0838C01D0839C03C001F074
:100E5000050E026ED8900132022EFCD70130D8A0C8
:100E600002D0838A01D0839A03C001F0013A0F0EA9
:100E700001160130D8A002D0838801D08398060ED5
:100E8000E82EFED700D08386030EE82EFED700F0B2
:100E9000839603C001F0D8900132D8900132D890E7
:100EA00001320130D8A002D0838E01D0839E03C0CE
:100EB00001F0D8900132D89001320130D8A002D090
:100EC000838C01D0839C03C001F0D89001320130A3
:100ED000D8A002D0838A01D0839A03A002D083884D
:100EE00001D08398060EE82EFED700D08386030E2D
:100EF000E82EFED700F083960F0E016E480EE82E06
:100F0000FED7012EFCD71200076E0DD00450800FC3
:100F100008D00450C00F05D00450940F02D00450E4
:100F2000D40F086E0DD00750010AD8B4EFD7030ACA
:100F3000D8B4EFD7010AD8B4EFD7070AD8B4EFD79F
:100F400008500BEC07F00AD005C0F6FF06C0F7FF0B
:100F50000800F5508EEC06F0054A062A05C0F6FF9B
:100F600006C0F7FF0800F5500009D8B41200ECD70E
:100F7000076E0DD00450800F08D00450C00F05D06C
:100F80000450940F02D00450D40F086E0DD00750B7
:100F9000010AD8B4EFD7030AD8B4EFD7010AD8B4FE
:100FA000EFD7070AD8B4EFD708500BEC07F009D0F9
:100FB00005C0D9FF06C0DAFFDF508EEC06F0054A07
:100FC000062A05C0D9FF06C0DAFFDF50D8B41200E8
:100FD000EFD7000E066E000E056E03500410D8B455
:100FE0001CD0010E076E04D0D89003360436072AB1
:100FF00004AEFAD7D890053606360350015C04508B
:101000000258D8A005D00350015E0450025A058052
:10101000D89004320332072EEDD705C001F006C088
:1010200002F012000A500B10D8B418D0010E0C6E4A
:1010300004D0D8900A360B360C2A0BAEFAD70A50D9
:10104000085C0B500958D8A004D00A50085E0B5019
:10105000095AD8900B320A320C2EF1D708C008F08A
:1010600009C009F0120001500302F3CF05F0F4CFDC
:1010700006F001500402F350062602500302F3501A
:10108000062605C001F006C002F01200036E000E35
:10109000026E3A0E036005D02F0E036402D0010EDB
:1010A000026E02C001F001301200000EF86E000165
:0410B00061EF05F0F7
:020000040020DA
:08000000FFFFFFFFFFFFFFFF00
:020000040030CA
:0E000000000B1F1EFF8185FF0FC00FE00F4099
:00000001FF
